:100000000C9462000C948A000C948A000C948A0070
:100010000C948A000C948A000C948A000C948A0038
:100020000C948A000C948A000C948A000C9483032C
:100030000C948A000C948A000C948A000C948A0018
:100040000C94E1020C948A000C9451030C942B0341
:100050000C948A000C948A000C948A000C948A00F8
:100060000C948A000C948A000000000023002600F3
:10007000290000000000240027002A0000000000E2
:10008000250028002B0004040404040404040202D4
:100090000202020203030303030301020408102007
:1000A0004080010204081020010204081020000012
:1000B0000008000201000003040700000000000027
:1000C0000000840411241FBECFEFD8E0DEBFCDBFF7
:1000D00011E0A0E0B1E0E6E3F0E102C005900D928E
:1000E000AA33B107D9F722E0AAE3B1E001C01D921B
:1000F000AB30B207E1F710E0C2E6D0E004C02197D0
:10010000FE010E941308C136D107C9F70E94E1041D
:100110000C9419080C9400008F929F92AF92BF929A
:10012000FF920F931F93CF93DF93F09008022BE081
:100130002F1508F44CC020910A0208E512E0021BBA
:10014000110927FD1395000F111F000F111F20919A
:100150000902C8E8D0E0C21BD10927FDD395CC0F16
:10016000DD1FCC0FDD1F4E010D2E000CAA08BB08B1
:100170009801012E000C440B550B281939094A0926
:100180005B09DC010E94A50624EB30E040E050E072
:100190000E947B06820E931EA41EB51E8C169D0621
:1001A0002CF0E801801691060CF4E4012297CC0FA4
:1001B000DD1F2FB7F8948F2D90E0FC01EE0FFF1F8D
:1001C000E80FF91FED51FE4FD283C1832FBFDF919E
:1001D000CF911F910F91FF90BF90AF909F908F9004
:1001E0000895833081F028F4813099F08230A9F0AD
:1001F00008958730A9F08830C9F08430B1F4809137
:1002000080008F7D03C0809180008F778093800075
:10021000089584B58F7784BD089584B58F7DFBCF15
:100220008091B0008F778093B00008958091B000E6
:100230008F7DF9CF1F93CF93DF93282F30E0F90103
:10024000E255FF4F8491F901E656FF4FD491F90131
:10025000EA57FF4FC491CC23A9F0162F81110E94B9
:10026000F100EC2FF0E0EE0FFF1FE458FF4FA591D7
:10027000B4918FB7F894EC91111108C0D095DE239A
:10028000DC938FBFDF91CF911F910895DE2BF8CFC4
:10029000CF93DF9390E0FC01E656FF4F24918A57FD
:1002A0009F4FFC0184918823D1F090E0880F991F23
:1002B000FC01EE58FF4FA591B491FC01E458FF4FAB
:1002C000C591D49161110EC09FB7F8948C91E22F23
:1002D000E0958E238C932881E223E8839FBFDF91F2
:1002E000CF9108958FB7F894EC91E22BEC938FBFE8
:1002F000F6CF3FB7F8948091420190914301A091CD
:100300004401B091450126B5A89B05C02F3F19F0C7
:100310000196A11DB11D3FBFBA2FA92F982F882785
:10032000BC01CD01620F711D811D911D42E0660F60
:10033000771F881F991F4A95D1F708958F929F9232
:10034000AF92BF92CF92DF92EF92FF920E9479011B
:100350004B015C0188EEC82E83E0D82EE12CF12CF5
:100360000E947901681979098A099B09683E7340DE
:1003700081059105A8F321E0C21AD108E108F1082E
:1003800088EE880E83E0981EA11CB11CC114D10414
:10039000E104F10429F7FF90EF90DF90CF90BF9038
:1003A000AF909F908F900895AF92BF92CF92DF92BF
:1003B000EF92FF920F931F93CF93DF936C017B011A
:1003C0008B01040F151FEB015E01AE18BF08C017AB
:1003D000D10759F06991D601ED91FC910190F0811E
:1003E000E02DC6010995892B79F7C501DF91CF91E1
:1003F0001F910F91FF90EF90DF90CF90BF90AF9043
:100400000895FC01538D448D252F30E0842F90E01A
:10041000821B930B541710F0CF96089501970895FF
:10042000FC01918D828D981761F0A28DAE0FBF2FC8
:10043000B11D5D968C91928D9F5F9F73928F90E01E
:1004400008958FEF9FEF0895FC01918D828D98178D
:1004500031F0828DE80FF11D858D90E008958FEFCA
:100460009FEF0895FC01918D228D892F90E0805C93
:100470009F4F821B91098F739927089586E491E01D
:100480000E94320221E0892B09F420E0822F089596
:1004900080E090E0892B29F00E943E0281110C94AB
:1004A00000000895FC01A48DA80FB92FB11DA35A17
:1004B000BF4F2C91848D90E001968F739927848F84
:1004C000A689B7892C93A089B1898C9183708064A7
:1004D0008C93938D848D981306C00288F389E02D48
:1004E00080818F7D80830895EF92FF920F931F93F9
:1004F000CF93DF93EC0181E0888F9B8D8C8D9813D7
:100500001AC0E889F989808185FF15C09FB7F894E2
:10051000EE89FF896083E889F9898081837080642E
:1005200080839FBF81E090E0DF91CF911F910F9179
:10053000FF90EF900895F62E0B8D10E00F5F1F4F88
:100540000F731127E02E8C8D8E110CC00FB607FC97
:10055000FACFE889F989808185FFF5CFCE010E9425
:100560005202F1CFEB8DEC0FFD2FF11DE35AFF4F3F
:10057000F0829FB7F8940B8FEA89FB8980818062B3
:10058000CFCFCF93DF93EC01888D8823B9F0AA8970
:10059000BB89E889F9898C9185FD03C0808186FD3E
:1005A0000DC00FB607FCF7CF8C9185FFF2CF80818D
:1005B00085FFEDCFCE010E945202E9CFDF91CF91AE
:1005C00008951F920F920FB60F9211242F933F930D
:1005D0008F939F93AF93BF9380913E0190913F0182
:1005E000A0914001B091410130913D0123E0230FE2
:1005F0002D3758F50196A11DB11D20933D01809323
:100600003E0190933F01A0934001B093410180913E
:10061000420190914301A0914401B091450101969E
:10062000A11DB11D8093420190934301A093440109
:10063000B0934501BF91AF919F918F913F912F91C1
:100640000F900FBE0F901F90189526E8230F02966B
:10065000A11DB11DD2CF1F920F920FB60F92112480
:100660002F933F934F935F936F937F938F939F93BA
:10067000AF93BF93EF93FF9386E491E00E94520201
:10068000FF91EF91BF91AF919F918F917F916F916A
:100690005F914F913F912F910F900FBE0F901F9040
:1006A00018951F920F920FB60F9211242F938F93CC
:1006B0009F93EF93FF93E0915601F0915701808152
:1006C000E0915C01F0915D0182FD1BC09081809101
:1006D0005F018F5F8F7320916001821741F0E0917D
:1006E0005F01F0E0EA5BFE4F958F80935F01FF9121
:1006F000EF919F918F912F910F900FBE0F901F90B0
:1007000018958081F4CF1F920F920FB60F9211248B
:100710002F933F934F935F936F937F938F939F9309
:10072000AF93BF93CF93DF93EF93FF9380913A0101
:10073000C0910702D0E087FF24C01092850010927C
:10074000840080913A018F5F80933A0180913A0151
:10075000082E000C990B8C179D0724F480913A0108
:100760008C30C4F18091840090918500049680348F
:100770009C4908F47AC08091840090918500049689
:1007800076C080913A01082E000C990B8C179D07BA
:10079000C4F6E0913A018E2FEE0F990BFC01EE0F9B
:1007A000FF1FE80FF91FED51FE4F808186FFC9CF73
:1007B000E0913A018E2FEE0F990BFC01EE0FFF1F17
:1007C000E80FF91FED51FE4F808160E08F730E94AA
:1007D0001A01B7CF2091840030918500E0913A0151
:1007E0008E2FEE0F990BFC01EE0FFF1FE80FF91F84
:1007F000ED51FE4F81819281820F931F909389006A
:1008000080938800E0913A018E2FEE0F990BFC0146
:10081000EE0FFF1FE80FF91FED51FE4F808186FF9D
:1008200011C0E0913A018E2FEE0F990BFC01EE0FF3
:10083000FF1FE80FF91FED51FE4F808161E08F73BC
:100840000E941A01FF91EF91DF91CF91BF91AF917B
:100850009F918F917F916F915F914F913F912F91D8
:100860000F900FBE0F901F90189580E49CE9909315
:100870008900809388008FEF80933A01E3CFCF9275
:10088000DF92EF92FF920F931F93E82FF92F05C08D
:10089000015011092109310961F1908196239417C2
:1008A000B9F305C0015011092109310911F19081F5
:1008B00096239413F7CFC12CD12CE12CF12C0AC034
:1008C0008FEFC81AD80AE80AF80A0C151D052E057C
:1008D0003F0579F080818623841791F36C2D7D2D5F
:1008E0008E2D9F2D1F910F91FF90EF90DF90CF9055
:1008F000089560E070E080E090E01F910F91FF901C
:10090000EF90DF90CF900895109249011092480126
:1009100088EE93E0A0E0B0E080934A0190934B0111
:10092000A0934C01B0934D0184E091E09093470176
:100930008093460185EC90E090935301809352019F
:1009400084EC90E0909355018093540180EC90E00A
:10095000909357018093560181EC90E09093590158
:100960008093580182EC90E090935B0180935A0150
:1009700086EC90E090935D0180935C0110925F01A2
:100980001092600110926101109262018091070241
:100990008C3098F491E0980F9093070280930802AE
:1009A00090E0FC01EE0FFF1FE80FF91FED51FE4F25
:1009B00088EB9BE09283818308958FEF80930802F8
:1009C0000895789484B5826084BD84B5816084BDC7
:1009D00085B5826085BD85B5816085BD80916E00DD
:1009E000816080936E00109281008091810082600E
:1009F000809381008091810081608093810080914B
:100A000080008160809380008091B1008460809339
:100A1000B1008091B00081608093B00080917A0035
:100A2000846080937A0080917A00826080937A005B
:100A300080917A00816080937A0080917A0080684A
:100A400080937A001092C10061E087E00E94480123
:100A500060E088E00E94480160E085E00E94480173
:100A600060E080E00E94480161E081E00E9448016E
:100A7000809108028C3008F051C061E089E00E944A
:100A8000480180910802282F30E0F901EE0FFF1F86
:100A9000E20FF31FED51FE4F9081907C996090839F
:100AA0001092090210920A022CE0622F0E9407089D
:100AB000829FB001112430E020E0AB01420F531FB0
:100AC000FA01EE0FFF1FE40FF51FED51FE4F90816D
:100AD00096FD16C02F5F3F4F2C30310571F7811105
:100AE0000FC01092800082E08093810010928500F8
:100AF00010928400B19A80916F00826080936F00A1
:100B0000E09108028E2F90E0FC01EE0FFF1FE80F2E
:100B1000F91FED51FE4F808180648083E091560182
:100B2000F091570182E08083E0915201F0915301EE
:100B30001082E0915401F09155018FEC8083109266
:100B40005E01E0915A01F0915B0186E08083E091C3
:100B50005801F0915901808180618083E0915801B2
:100B6000F0915901808188608083E0915801F09173
:100B70005901808180688083E0915801F09159018A
:100B800080818F7D8083C3E0D0E03FE0E32EF12CB5
:100B900042EA242E40E0342E5EE8452E50E0552EE9
:100BA00063EB662E60E0762E7FE9C72E70E0D72ECD
:100BB000EBE8AE2EE0E0BE2E20E0822E20E0922E6A
:100BC00086E491E00E943202892B41F086E491E0B4
:100BD0000E94100290933C0180933B0180913B0165
:100BE00090913C018133910581F488E790E00E9467
:100BF0008C000E949E018114910411F30E943E0218
:100C00008823D1F20E940000D7CFC09731F490E042
:100C100080E00E948C000E949E0160E087E00E94BC
:100C20001A01CE010197F1F761E087E00E941A01F5
:100C3000C7010197F1F760E087E00E941A01F10116
:100C40006491F2018491E82FF0E0EE0FFF1FE85964
:100C5000FF4F8591949100E412E42FE030E0462F9D
:100C60000E943F04611571058105910529F06F5FB0
:100C70007F4F8F4F9F4F9F700E9455072DEC3CEC8C
:100C800048E652E40E94E30620E030E048E452E403
:100C90000E94DE0687FF1DC08AE590E00E948C005E
:100CA000F3018491F6011491F5010491011114C02E
:100CB00044E250E062E171E086E491E00E94D401F8
:100CC00042E050E067E371E086E491E00E94D401E5
:100CD00090CF90E080E0E2CF81110E94F100E02F00
:100CE000F0E0EE0FFF1FE859FF4FA591B4918C91F2
:100CF0001823F1F27ECF052E97FB1EF400940E947C
:100D0000920657FD07D00E94AD0607FC03D04EF4B3
:100D10000C94920650954095309521953F4F4F4F3A
:100D20005F4F089590958095709561957F4F8F4F97
:100D30009F4F08950E94CF06A59F900DB49F900DE0
:100D4000A49F800D911D11240895B7FF0C949A065D
:100D50000E949A06821B930B0895A1E21A2EAA1BE9
:100D6000BB1BFD010DC0AA1FBB1FEE1FFF1FA2175B
:100D7000B307E407F50720F0A21BB30BE40BF50B58
:100D8000661F771F881F991F1A9469F760957095E1
:100D9000809590959B01AC01BD01CF010895A29F64
:100DA000B001B39FC001A39F700D811D1124911D3F
:100DB000B29F700D811D1124911D08950E9492070C
:100DC00008F481E008950E94F7060C94CD070E9474
:100DD000C60758F00E94BF0740F029F45F3F29F092
:100DE0000C94B60751110C9401080C94BC070E9496
:100DF000DE0768F39923B1F3552391F3951B550B47
:100E0000BB27AA2762177307840738F09F5F5F4FDD
:100E1000220F331F441FAA1FA9F335D00E2E3AF01C
:100E2000E0E832D091505040E695001CCAF72BD034
:100E3000FE2F29D0660F771F881FBB1F2617370785
:100E40004807AB07B0E809F0BB0B802DBF01FF27B7
:100E500093585F4F3AF09E3F510578F00C94B607D7
:100E60000C9401085F3FE4F3983ED4F386957795A0
:100E70006795B795F7959F5FC9F7880F911D969570
:100E8000879597F90895E1E0660F771F881FBB1FCC
:100E9000621773078407BA0720F0621B730B840B79
:100EA000BA0BEE1F88F7E0950895E89409C097FB08
:100EB0003EF490958095709561957F4F8F4F9F4F31
:100EC0009923A9F0F92F96E9BB279395F695879575
:100ED00077956795B795F111F8CFFAF4BB0F11F438
:100EE00060FF1BC06F5F7F4F8F4F9F4F16C08823DF
:100EF00011F096E911C0772321F09EE8872F762F15
:100F000005C0662371F096E8862F70E060E02AF055
:100F10009A95660F771F881FDAF7880F9695879541
:100F200097F90895990F0008550FAA0BE0E8FEEF16
:100F300016161706E807F907C0F012161306E4079D
:100F4000F50798F0621B730B840B950B39F40A2696
:100F500061F0232B242B252B21F408950A2609F474
:100F6000A140A6958FEF811D811D089597F99F6778
:100F700080E870E060E008959FEF80EC0895002421
:100F80000A941616170618060906089500240A94EE
:100F900012161306140605060895092E0394000C74
:100FA00011F4882352F0BB0F40F4BF2B11F460FF03
:100FB00004C06F5F7F4F8F4F9F4F089557FD90582C
:100FC000440F551F59F05F3F71F04795880F97FB0D
:100FD000991F61F09F3F79F08795089512161306C7
:100FE0001406551FF2CF4695F1DF08C016161706F6
:100FF0001806991FF1CF869571056105089408952B
:10100000E894BB2766277727CB0197F90895991BAA
:1010100079E004C0991F961708F0961B881F7A95EF
:10102000C9F780950895EE0FFF1F0590F491E02D0C
:061030000994F894FFCFC3
:10103600000000007402D4010102C1023202100253
:101046002402447573742042696E206973204669D0
:101056006C6C6564200A20506C6561736520436C76
:0A10660065616E204974000D0A0058
:00000001FF
